{
  "contractName": "Transactions",
  "abi": [
    {
      "inputs": [],
      "stateMutability": "nonpayable",
      "type": "constructor"
    },
    {
      "anonymous": false,
      "inputs": [
        {
          "indexed": false,
          "internalType": "address",
          "name": "sender",
          "type": "address"
        },
        {
          "indexed": false,
          "internalType": "address",
          "name": "receiver",
          "type": "address"
        },
        {
          "indexed": false,
          "internalType": "uint256",
          "name": "amount",
          "type": "uint256"
        },
        {
          "indexed": false,
          "internalType": "string",
          "name": "message",
          "type": "string"
        },
        {
          "indexed": false,
          "internalType": "string",
          "name": "keyword",
          "type": "string"
        },
        {
          "indexed": false,
          "internalType": "uint256",
          "name": "timestamp",
          "type": "uint256"
        }
      ],
      "name": "Transfer",
      "type": "event"
    },
    {
      "inputs": [
        {
          "internalType": "address payable",
          "name": "receiver",
          "type": "address"
        },
        {
          "internalType": "uint256",
          "name": "amount",
          "type": "uint256"
        },
        {
          "internalType": "string",
          "name": "message",
          "type": "string"
        },
        {
          "internalType": "string",
          "name": "keyword",
          "type": "string"
        }
      ],
      "name": "publishTransaction",
      "outputs": [],
      "stateMutability": "nonpayable",
      "type": "function"
    },
    {
      "inputs": [],
      "name": "getTransactionCount",
      "outputs": [
        {
          "internalType": "uint256",
          "name": "",
          "type": "uint256"
        }
      ],
      "stateMutability": "view",
      "type": "function",
      "constant": true
    }
  ],
  "bytecode": "0x608060405234801561001057600080fd5b50600080819055506105b7806100276000396000f3fe608060405234801561001057600080fd5b50600436106100365760003560e01c80632e7700f01461003b5780637d0ee35714610059575b600080fd5b610043610075565b60405161005091906100f5565b60405180910390f35b610073600480360381019061006e91906102f4565b61007e565b005b60008054905090565b600080815480929190610090906103c2565b91905055507f5e245fe3ab1aa0e8ad77928e6d608e234861c6f4cc61f42cdb647db3f4f3ca463385858585426040516100ce96959493929190610512565b60405180910390a150505050565b6000819050919050565b6100ef816100dc565b82525050565b600060208201905061010a60008301846100e6565b92915050565b6000604051905090565b600080fd5b600080fd5b600073ffffffffffffffffffffffffffffffffffffffff82169050919050565b600061014f82610124565b9050919050565b61015f81610144565b811461016a57600080fd5b50565b60008135905061017c81610156565b92915050565b61018b816100dc565b811461019657600080fd5b50565b6000813590506101a881610182565b92915050565b600080fd5b600080fd5b6000601f19601f8301169050919050565b7f4e487b7100000000000000000000000000000000000000000000000000000000600052604160045260246000fd5b610201826101b8565b810181811067ffffffffffffffff821117156102205761021f6101c9565b5b80604052505050565b6000610233610110565b905061023f82826101f8565b919050565b600067ffffffffffffffff82111561025f5761025e6101c9565b5b610268826101b8565b9050602081019050919050565b82818337600083830152505050565b600061029761029284610244565b610229565b9050828152602081018484840111156102b3576102b26101b3565b5b6102be848285610275565b509392505050565b600082601f8301126102db576102da6101ae565b5b81356102eb848260208601610284565b91505092915050565b6000806000806080858703121561030e5761030d61011a565b5b600061031c8782880161016d565b945050602061032d87828801610199565b935050604085013567ffffffffffffffff81111561034e5761034d61011f565b5b61035a878288016102c6565b925050606085013567ffffffffffffffff81111561037b5761037a61011f565b5b610387878288016102c6565b91505092959194509250565b7f4e487b7100000000000000000000000000000000000000000000000000000000600052601160045260246000fd5b60006103cd826100dc565b91507fffffffffffffffffffffffffffffffffffffffffffffffffffffffffffffffff82036103ff576103fe610393565b5b600182019050919050565b600061041582610124565b9050919050565b6104258161040a565b82525050565b6000819050919050565b600061045061044b61044684610124565b61042b565b610124565b9050919050565b600061046282610435565b9050919050565b600061047482610457565b9050919050565b61048481610469565b82525050565b600081519050919050565b600082825260208201905092915050565b60005b838110156104c45780820151818401526020810190506104a9565b838111156104d3576000848401525b50505050565b60006104e48261048a565b6104ee8185610495565b93506104fe8185602086016104a6565b610507816101b8565b840191505092915050565b600060c082019050610527600083018961041c565b610534602083018861047b565b61054160408301876100e6565b818103606083015261055381866104d9565b9050818103608083015261056781856104d9565b905061057660a08301846100e6565b97965050505050505056fea2646970667358221220616af093b49a83a87fee204709a4eea549f554ebb11d98e15beebd8b59dea04564736f6c634300080f0033",
  "immutableReferences": {},
  "source": "//SPDX-License-Identifier: UNLICENSED\r\npragma solidity 0.8.15;\r\n\r\ncontract Transactions {\r\n    uint256 transactionCount;\r\n\r\n    constructor() {\r\n        transactionCount = 0;\r\n    }\r\n\r\n    event Transfer(\r\n        address sender,\r\n        address receiver,\r\n        uint256 amount,\r\n        string message,\r\n        string keyword,\r\n        uint256 timestamp\r\n    );\r\n\r\n    function publishTransaction(\r\n        address payable receiver,\r\n        uint256 amount,\r\n        string memory message,\r\n        string memory keyword\r\n    ) public {\r\n        transactionCount++;\r\n\r\n        emit Transfer(\r\n            msg.sender,\r\n            receiver,\r\n            amount,\r\n            message,\r\n            keyword,\r\n            block.timestamp\r\n        );\r\n    }\r\n\r\n    function getTransactionCount() public view returns (uint256) {\r\n        return transactionCount;\r\n    }\r\n}\r\n",
  "sourcePath": "D:\\Development\\blockchain\\uniswap\\smart_contract\\contracts\\Transactions.sol",
  "compiler": {
    "name": "solc",
    "version": "0.8.15+commit.e14f2714.Emscripten.clang"
  },
  "schemaVersion": "3.4.8",
  "updatedAt": "2022-07-20T11:16:51.681Z",
  "networkType": "ethereum",
  "devdoc": {
    "kind": "dev",
    "methods": {},
    "version": 1
  },
  "userdoc": {
    "kind": "user",
    "methods": {},
    "version": 1
  }
}